{
  "_format": "hh-sol-artifact-1",
  "contractName": "Fanime",
  "sourceName": "contracts/Fanime.sol",
  "abi": [
    {
      "inputs": [
        {
          "internalType": "string[]",
          "name": "characterNames",
          "type": "string[]"
        },
        {
          "internalType": "string[]",
          "name": "characterImageURIs",
          "type": "string[]"
        },
        {
          "internalType": "uint256[]",
          "name": "characterHps",
          "type": "uint256[]"
        },
        {
          "internalType": "uint256[]",
          "name": "characterAps",
          "type": "uint256[]"
        },
        {
          "internalType": "string",
          "name": "bossName",
          "type": "string"
        },
        {
          "internalType": "string",
          "name": "bossImageURI",
          "type": "string"
        },
        {
          "internalType": "uint256",
          "name": "bossHp",
          "type": "uint256"
        },
        {
          "internalType": "uint256",
          "name": "bossAp",
          "type": "uint256"
        }
      ],
      "stateMutability": "nonpayable",
      "type": "constructor"
    },
    {
      "anonymous": false,
      "inputs": [
        {
          "indexed": true,
          "internalType": "address",
          "name": "owner",
          "type": "address"
        },
        {
          "indexed": true,
          "internalType": "address",
          "name": "approved",
          "type": "address"
        },
        {
          "indexed": true,
          "internalType": "uint256",
          "name": "tokenId",
          "type": "uint256"
        }
      ],
      "name": "Approval",
      "type": "event"
    },
    {
      "anonymous": false,
      "inputs": [
        {
          "indexed": true,
          "internalType": "address",
          "name": "owner",
          "type": "address"
        },
        {
          "indexed": true,
          "internalType": "address",
          "name": "operator",
          "type": "address"
        },
        {
          "indexed": false,
          "internalType": "bool",
          "name": "approved",
          "type": "bool"
        }
      ],
      "name": "ApprovalForAll",
      "type": "event"
    },
    {
      "anonymous": false,
      "inputs": [
        {
          "indexed": false,
          "internalType": "uint256",
          "name": "newBossHp",
          "type": "uint256"
        },
        {
          "indexed": false,
          "internalType": "uint256",
          "name": "newPlayerHp",
          "type": "uint256"
        }
      ],
      "name": "NewAttack",
      "type": "event"
    },
    {
      "anonymous": false,
      "inputs": [
        {
          "indexed": false,
          "internalType": "address",
          "name": "sender",
          "type": "address"
        },
        {
          "indexed": false,
          "internalType": "uint256",
          "name": "tokenId",
          "type": "uint256"
        },
        {
          "indexed": false,
          "internalType": "uint256",
          "name": "characterId",
          "type": "uint256"
        }
      ],
      "name": "NewMint",
      "type": "event"
    },
    {
      "anonymous": false,
      "inputs": [
        {
          "indexed": true,
          "internalType": "address",
          "name": "from",
          "type": "address"
        },
        {
          "indexed": true,
          "internalType": "address",
          "name": "to",
          "type": "address"
        },
        {
          "indexed": true,
          "internalType": "uint256",
          "name": "tokenId",
          "type": "uint256"
        }
      ],
      "name": "Transfer",
      "type": "event"
    },
    {
      "inputs": [
        {
          "internalType": "address",
          "name": "to",
          "type": "address"
        },
        {
          "internalType": "uint256",
          "name": "tokenId",
          "type": "uint256"
        }
      ],
      "name": "approve",
      "outputs": [],
      "stateMutability": "nonpayable",
      "type": "function"
    },
    {
      "inputs": [],
      "name": "attack",
      "outputs": [],
      "stateMutability": "nonpayable",
      "type": "function"
    },
    {
      "inputs": [
        {
          "internalType": "address",
          "name": "owner",
          "type": "address"
        }
      ],
      "name": "balanceOf",
      "outputs": [
        {
          "internalType": "uint256",
          "name": "",
          "type": "uint256"
        }
      ],
      "stateMutability": "view",
      "type": "function"
    },
    {
      "inputs": [],
      "name": "boss",
      "outputs": [
        {
          "internalType": "string",
          "name": "name",
          "type": "string"
        },
        {
          "internalType": "string",
          "name": "imageURI",
          "type": "string"
        },
        {
          "internalType": "uint256",
          "name": "hp",
          "type": "uint256"
        },
        {
          "internalType": "uint256",
          "name": "maxHp",
          "type": "uint256"
        },
        {
          "internalType": "uint256",
          "name": "ap",
          "type": "uint256"
        }
      ],
      "stateMutability": "view",
      "type": "function"
    },
    {
      "inputs": [
        {
          "internalType": "uint256",
          "name": "tokenId",
          "type": "uint256"
        }
      ],
      "name": "getApproved",
      "outputs": [
        {
          "internalType": "address",
          "name": "",
          "type": "address"
        }
      ],
      "stateMutability": "view",
      "type": "function"
    },
    {
      "inputs": [],
      "name": "getBoss",
      "outputs": [
        {
          "components": [
            {
              "internalType": "string",
              "name": "name",
              "type": "string"
            },
            {
              "internalType": "string",
              "name": "imageURI",
              "type": "string"
            },
            {
              "internalType": "uint256",
              "name": "hp",
              "type": "uint256"
            },
            {
              "internalType": "uint256",
              "name": "maxHp",
              "type": "uint256"
            },
            {
              "internalType": "uint256",
              "name": "ap",
              "type": "uint256"
            }
          ],
          "internalType": "struct Fanime.Boss",
          "name": "",
          "type": "tuple"
        }
      ],
      "stateMutability": "view",
      "type": "function"
    },
    {
      "inputs": [],
      "name": "getCharacters",
      "outputs": [
        {
          "components": [
            {
              "internalType": "uint256",
              "name": "characterId",
              "type": "uint256"
            },
            {
              "internalType": "string",
              "name": "name",
              "type": "string"
            },
            {
              "internalType": "string",
              "name": "imageURI",
              "type": "string"
            },
            {
              "internalType": "uint256",
              "name": "hp",
              "type": "uint256"
            },
            {
              "internalType": "uint256",
              "name": "maxHp",
              "type": "uint256"
            },
            {
              "internalType": "uint256",
              "name": "ap",
              "type": "uint256"
            }
          ],
          "internalType": "struct Fanime.Character[]",
          "name": "",
          "type": "tuple[]"
        }
      ],
      "stateMutability": "view",
      "type": "function"
    },
    {
      "inputs": [],
      "name": "getPlayerCharacter",
      "outputs": [
        {
          "components": [
            {
              "internalType": "uint256",
              "name": "characterId",
              "type": "uint256"
            },
            {
              "internalType": "string",
              "name": "name",
              "type": "string"
            },
            {
              "internalType": "string",
              "name": "imageURI",
              "type": "string"
            },
            {
              "internalType": "uint256",
              "name": "hp",
              "type": "uint256"
            },
            {
              "internalType": "uint256",
              "name": "maxHp",
              "type": "uint256"
            },
            {
              "internalType": "uint256",
              "name": "ap",
              "type": "uint256"
            }
          ],
          "internalType": "struct Fanime.Character",
          "name": "",
          "type": "tuple"
        }
      ],
      "stateMutability": "view",
      "type": "function"
    },
    {
      "inputs": [
        {
          "internalType": "address",
          "name": "owner",
          "type": "address"
        },
        {
          "internalType": "address",
          "name": "operator",
          "type": "address"
        }
      ],
      "name": "isApprovedForAll",
      "outputs": [
        {
          "internalType": "bool",
          "name": "",
          "type": "bool"
        }
      ],
      "stateMutability": "view",
      "type": "function"
    },
    {
      "inputs": [
        {
          "internalType": "uint256",
          "name": "_characterId",
          "type": "uint256"
        }
      ],
      "name": "mint",
      "outputs": [],
      "stateMutability": "nonpayable",
      "type": "function"
    },
    {
      "inputs": [],
      "name": "name",
      "outputs": [
        {
          "internalType": "string",
          "name": "",
          "type": "string"
        }
      ],
      "stateMutability": "view",
      "type": "function"
    },
    {
      "inputs": [
        {
          "internalType": "uint256",
          "name": "tokenId",
          "type": "uint256"
        }
      ],
      "name": "ownerOf",
      "outputs": [
        {
          "internalType": "address",
          "name": "",
          "type": "address"
        }
      ],
      "stateMutability": "view",
      "type": "function"
    },
    {
      "inputs": [
        {
          "internalType": "uint256",
          "name": "",
          "type": "uint256"
        }
      ],
      "name": "playerCharacters",
      "outputs": [
        {
          "internalType": "uint256",
          "name": "characterId",
          "type": "uint256"
        },
        {
          "internalType": "string",
          "name": "name",
          "type": "string"
        },
        {
          "internalType": "string",
          "name": "imageURI",
          "type": "string"
        },
        {
          "internalType": "uint256",
          "name": "hp",
          "type": "uint256"
        },
        {
          "internalType": "uint256",
          "name": "maxHp",
          "type": "uint256"
        },
        {
          "internalType": "uint256",
          "name": "ap",
          "type": "uint256"
        }
      ],
      "stateMutability": "view",
      "type": "function"
    },
    {
      "inputs": [
        {
          "internalType": "address",
          "name": "",
          "type": "address"
        }
      ],
      "name": "playerIds",
      "outputs": [
        {
          "internalType": "uint256",
          "name": "",
          "type": "uint256"
        }
      ],
      "stateMutability": "view",
      "type": "function"
    },
    {
      "inputs": [
        {
          "internalType": "address",
          "name": "from",
          "type": "address"
        },
        {
          "internalType": "address",
          "name": "to",
          "type": "address"
        },
        {
          "internalType": "uint256",
          "name": "tokenId",
          "type": "uint256"
        }
      ],
      "name": "safeTransferFrom",
      "outputs": [],
      "stateMutability": "nonpayable",
      "type": "function"
    },
    {
      "inputs": [
        {
          "internalType": "address",
          "name": "from",
          "type": "address"
        },
        {
          "internalType": "address",
          "name": "to",
          "type": "address"
        },
        {
          "internalType": "uint256",
          "name": "tokenId",
          "type": "uint256"
        },
        {
          "internalType": "bytes",
          "name": "_data",
          "type": "bytes"
        }
      ],
      "name": "safeTransferFrom",
      "outputs": [],
      "stateMutability": "nonpayable",
      "type": "function"
    },
    {
      "inputs": [
        {
          "internalType": "address",
          "name": "operator",
          "type": "address"
        },
        {
          "internalType": "bool",
          "name": "approved",
          "type": "bool"
        }
      ],
      "name": "setApprovalForAll",
      "outputs": [],
      "stateMutability": "nonpayable",
      "type": "function"
    },
    {
      "inputs": [
        {
          "internalType": "bytes4",
          "name": "interfaceId",
          "type": "bytes4"
        }
      ],
      "name": "supportsInterface",
      "outputs": [
        {
          "internalType": "bool",
          "name": "",
          "type": "bool"
        }
      ],
      "stateMutability": "view",
      "type": "function"
    },
    {
      "inputs": [],
      "name": "symbol",
      "outputs": [
        {
          "internalType": "string",
          "name": "",
          "type": "string"
        }
      ],
      "stateMutability": "view",
      "type": "function"
    },
    {
      "inputs": [
        {
          "internalType": "uint256",
          "name": "_tokenId",
          "type": "uint256"
        }
      ],
      "name": "tokenURI",
      "outputs": [
        {
          "internalType": "string",
          "name": "",
          "type": "string"
        }
      ],
      "stateMutability": "view",
      "type": "function"
    },
    {
      "inputs": [
        {
          "internalType": "address",
          "name": "from",
          "type": "address"
        },
        {
          "internalType": "address",
          "name": "to",
          "type": "address"
        },
        {
          "internalType": "uint256",
          "name": "tokenId",
          "type": "uint256"
        }
      ],
      "name": "transferFrom",
      "outputs": [],
      "stateMutability": "nonpayable",
      "type": "function"
    }
  ],
  "bytecode": "0x60806040523480156200001157600080fd5b5060405162004bcc38038062004bcc833981810160405281019062000037919062000631565b6040518060400160405280600681526020017f46616e696d6500000000000000000000000000000000000000000000000000008152506040518060400160405280600381526020017f464e4d00000000000000000000000000000000000000000000000000000000008152508160009080519060200190620000bb929190620003c4565b508060019080519060200190620000d4929190620003c4565b5050506040518060a0016040528085815260200184815260200183815260200183815260200182815250600860008201518160000190805190602001906200011e929190620003c4565b5060208201518160010190805190602001906200013d929190620003c4565b5060408201518160020155606082015181600301556080820151816004015590505060005b8851811015620003885760076040518060c001604052808381526020018b8481518110620001b9577f4e487b7100000000000000000000000000000000000000000000000000000000600052603260045260246000fd5b602002602001015181526020018a848151811062000200577f4e487b7100000000000000000000000000000000000000000000000000000000600052603260045260246000fd5b6020026020010151815260200189848151811062000247577f4e487b7100000000000000000000000000000000000000000000000000000000600052603260045260246000fd5b602002602001015181526020018984815181106200028e577f4e487b7100000000000000000000000000000000000000000000000000000000600052603260045260246000fd5b60200260200101518152602001888481518110620002d5577f4e487b7100000000000000000000000000000000000000000000000000000000600052603260045260246000fd5b6020026020010151815250908060018154018082558091505060019003906000526020600020906006020160009091909190915060008201518160000155602082015181600101908051906020019062000331929190620003c4565b50604082015181600201908051906020019062000350929190620003c4565b50606082015181600301556080820151816004015560a08201518160050155505060018162000380919062000847565b905062000162565b50620003a06006620003ae60201b620019cb1760201c565b505050505050505062000a08565b6001816000016000828254019250508190555050565b828054620003d290620008e4565b90600052602060002090601f016020900481019282620003f6576000855562000442565b82601f106200041157805160ff191683800117855562000442565b8280016001018555821562000442579182015b828111156200044157825182559160200191906001019062000424565b5b50905062000451919062000455565b5090565b5b808211156200047057600081600090555060010162000456565b5090565b60006200048b6200048584620007b3565b6200078a565b9050808382526020820190508260005b85811015620004cf5781518501620004b48882620005ed565b8452602084019350602083019250506001810190506200049b565b5050509392505050565b6000620004f0620004ea84620007e2565b6200078a565b905080838252602082019050828560208602820111156200051057600080fd5b60005b858110156200054457816200052988826200061a565b84526020840193506020830192505060018101905062000513565b5050509392505050565b6000620005656200055f8462000811565b6200078a565b9050828152602081018484840111156200057e57600080fd5b6200058b848285620008ae565b509392505050565b600082601f830112620005a557600080fd5b8151620005b784826020860162000474565b91505092915050565b600082601f830112620005d257600080fd5b8151620005e4848260208601620004d9565b91505092915050565b600082601f830112620005ff57600080fd5b8151620006118482602086016200054e565b91505092915050565b6000815190506200062b81620009ee565b92915050565b600080600080600080600080610100898b0312156200064f57600080fd5b600089015167ffffffffffffffff8111156200066a57600080fd5b620006788b828c0162000593565b985050602089015167ffffffffffffffff8111156200069657600080fd5b620006a48b828c0162000593565b975050604089015167ffffffffffffffff811115620006c257600080fd5b620006d08b828c01620005c0565b965050606089015167ffffffffffffffff811115620006ee57600080fd5b620006fc8b828c01620005c0565b955050608089015167ffffffffffffffff8111156200071a57600080fd5b620007288b828c01620005ed565b94505060a089015167ffffffffffffffff8111156200074657600080fd5b620007548b828c01620005ed565b93505060c0620007678b828c016200061a565b92505060e06200077a8b828c016200061a565b9150509295985092959890939650565b600062000796620007a9565b9050620007a482826200091a565b919050565b6000604051905090565b600067ffffffffffffffff821115620007d157620007d0620009ae565b5b602082029050602081019050919050565b600067ffffffffffffffff8211156200080057620007ff620009ae565b5b602082029050602081019050919050565b600067ffffffffffffffff8211156200082f576200082e620009ae565b5b6200083a82620009dd565b9050602081019050919050565b60006200085482620008a4565b91506200086183620008a4565b9250827fffffffffffffffffffffffffffffffffffffffffffffffffffffffffffffffff0382111562000899576200089862000950565b5b828201905092915050565b6000819050919050565b60005b83811015620008ce578082015181840152602081019050620008b1565b83811115620008de576000848401525b50505050565b60006002820490506001821680620008fd57607f821691505b602082108114156200091457620009136200097f565b5b50919050565b6200092582620009dd565b810181811067ffffffffffffffff82111715620009475762000946620009ae565b5b80604052505050565b7f4e487b7100000000000000000000000000000000000000000000000000000000600052601160045260246000fd5b7f4e487b7100000000000000000000000000000000000000000000000000000000600052602260045260246000fd5b7f4e487b7100000000000000000000000000000000000000000000000000000000600052604160045260246000fd5b6000601f19601f8301169050919050565b620009f981620008a4565b811462000a0557600080fd5b50565b6141b48062000a186000396000f3fe608060405234801561001057600080fd5b50600436106101375760003560e01c806395d89b41116100b8578063c76d9e7d1161007c578063c76d9e7d1461033d578063c772af391461035b578063c87b56dd1461037d578063d36ec061146103ad578063e985e9c5146103dd578063ee1ff4db1461040d57610137565b806395d89b41146102c15780639e5faafc146102df578063a0712d68146102e9578063a22cb46514610305578063b88d4fde1461032157610137565b80633932463a116100ff5780633932463a146101f25780633ce441f81461022757806342842e0e146102455780636352211e1461026157806370a082311461029157610137565b806301ffc9a71461013c57806306fdde031461016c578063081812fc1461018a578063095ea7b3146101ba57806323b872dd146101d6575b600080fd5b61015660048036038101906101519190612b77565b61042b565b60405161016391906133a1565b60405180910390f35b61017461050d565b60405161018191906133bc565b60405180910390f35b6101a4600480360381019061019f9190612bc9565b61059f565b6040516101b191906132e1565b60405180910390f35b6101d460048036038101906101cf9190612b3b565b610624565b005b6101f060048036038101906101eb9190612a35565b61073c565b005b61020c60048036038101906102079190612bc9565b61079c565b60405161021e9695949392919061367e565b60405180910390f35b61022f6108e8565b60405161023c9190613641565b60405180910390f35b61025f600480360381019061025a9190612a35565b610ac0565b005b61027b60048036038101906102769190612bc9565b610ae0565b60405161028891906132e1565b60405180910390f35b6102ab60048036038101906102a691906129d0565b610b92565b6040516102b89190613663565b60405180910390f35b6102c9610c4a565b6040516102d691906133bc565b60405180910390f35b6102e7610cdc565b005b61030360048036038101906102fe9190612bc9565b610e8a565b005b61031f600480360381019061031a9190612aff565b61125b565b005b61033b60048036038101906103369190612a84565b611271565b005b6103456112d3565b604051610352919061361f565b60405180910390f35b61036361142f565b6040516103749594939291906133de565b60405180910390f35b61039760048036038101906103929190612bc9565b611563565b6040516103a491906133bc565b60405180910390f35b6103c760048036038101906103c291906129d0565b611774565b6040516103d49190613663565b60405180910390f35b6103f760048036038101906103f291906129f9565b61178c565b60405161040491906133a1565b60405180910390f35b610415611820565b604051610422919061337f565b60405180910390f35b60007f80ac58cd000000000000000000000000000000000000000000000000000000007bffffffffffffffffffffffffffffffffffffffffffffffffffffffff1916827bffffffffffffffffffffffffffffffffffffffffffffffffffffffff191614806104f657507f5b5e139f000000000000000000000000000000000000000000000000000000007bffffffffffffffffffffffffffffffffffffffffffffffffffffffff1916827bffffffffffffffffffffffffffffffffffffffffffffffffffffffff1916145b806105065750610505826119e1565b5b9050919050565b60606000805461051c906139c4565b80601f0160208091040260200160405190810160405280929190818152602001828054610548906139c4565b80156105955780601f1061056a57610100808354040283529160200191610595565b820191906000526020600020905b81548152906001019060200180831161057857829003601f168201915b5050505050905090565b60006105aa82611a4b565b6105e9576040517f08c379a00000000000000000000000000000000000000000000000000000000081526004016105e09061359f565b60405180910390fd5b6004600083815260200190815260200160002060009054906101000a900473ffffffffffffffffffffffffffffffffffffffff169050919050565b600061062f82610ae0565b90508073ffffffffffffffffffffffffffffffffffffffff168373ffffffffffffffffffffffffffffffffffffffff1614156106a0576040517f08c379a0000000000000000000000000000000000000000000000000000000008152600401610697906135bf565b60405180910390fd5b8073ffffffffffffffffffffffffffffffffffffffff166106bf611ab7565b73ffffffffffffffffffffffffffffffffffffffff1614806106ee57506106ed816106e8611ab7565b61178c565b5b61072d576040517f08c379a00000000000000000000000000000000000000000000000000000000081526004016107249061351f565b60405180910390fd5b6107378383611abf565b505050565b61074d610747611ab7565b82611b78565b61078c576040517f08c379a0000000000000000000000000000000000000000000000000000000008152600401610783906135df565b60405180910390fd5b610797838383611c56565b505050565b600e6020528060005260406000206000915090508060000154908060010180546107c5906139c4565b80601f01602080910402602001604051908101604052809291908181526020018280546107f1906139c4565b801561083e5780601f106108135761010080835404028352916020019161083e565b820191906000526020600020905b81548152906001019060200180831161082157829003601f168201915b505050505090806002018054610853906139c4565b80601f016020809104026020016040519081016040528092919081815260200182805461087f906139c4565b80156108cc5780601f106108a1576101008083540402835291602001916108cc565b820191906000526020600020905b8154815290600101906020018083116108af57829003601f168201915b5050505050908060030154908060040154908060050154905086565b6108f06127f7565b6000600d60003373ffffffffffffffffffffffffffffffffffffffff1673ffffffffffffffffffffffffffffffffffffffff1681526020019081526020016000205490506000811115610aaf57600e60008281526020019081526020016000206040518060c001604052908160008201548152602001600182018054610975906139c4565b80601f01602080910402602001604051908101604052809291908181526020018280546109a1906139c4565b80156109ee5780601f106109c3576101008083540402835291602001916109ee565b820191906000526020600020905b8154815290600101906020018083116109d157829003601f168201915b50505050508152602001600282018054610a07906139c4565b80601f0160208091040260200160405190810160405280929190818152602001828054610a33906139c4565b8015610a805780601f10610a5557610100808354040283529160200191610a80565b820191906000526020600020905b815481529060010190602001808311610a6357829003601f168201915b505050505081526020016003820154815260200160048201548152602001600582015481525050915050610abd565b610ab76127f7565b80925050505b90565b610adb83838360405180602001604052806000815250611271565b505050565b6000806002600084815260200190815260200160002060009054906101000a900473ffffffffffffffffffffffffffffffffffffffff169050600073ffffffffffffffffffffffffffffffffffffffff168173ffffffffffffffffffffffffffffffffffffffff161415610b89576040517f08c379a0000000000000000000000000000000000000000000000000000000008152600401610b809061355f565b60405180910390fd5b80915050919050565b60008073ffffffffffffffffffffffffffffffffffffffff168273ffffffffffffffffffffffffffffffffffffffff161415610c03576040517f08c379a0000000000000000000000000000000000000000000000000000000008152600401610bfa9061353f565b60405180910390fd5b600360008373ffffffffffffffffffffffffffffffffffffffff1673ffffffffffffffffffffffffffffffffffffffff168152602001908152602001600020549050919050565b606060018054610c59906139c4565b80601f0160208091040260200160405190810160405280929190818152602001828054610c85906139c4565b8015610cd25780601f10610ca757610100808354040283529160200191610cd2565b820191906000526020600020905b815481529060010190602001808311610cb557829003601f168201915b5050505050905090565b6000600d60003373ffffffffffffffffffffffffffffffffffffffff1673ffffffffffffffffffffffffffffffffffffffff1681526020019081526020016000205490506000600e600083815260200190815260200160002090506000816003015411610d7e576040517f08c379a0000000000000000000000000000000000000000000000000000000008152600401610d75906135ff565b60405180910390fd5b600060086002015411610dc6576040517f08c379a0000000000000000000000000000000000000000000000000000000008152600401610dbd9061343f565b60405180910390fd5b80600501546008600201541015610de7576000600860020181905550610e06565b8060050154600860020154610dfc91906138da565b6008600201819055505b60086004015481600301541015610e265760008160030181905550610e44565b6008600401548160030154610e3b91906138da565b81600301819055505b7f8f82a7c4c669a36879713e85e9def669c582243f33444771b97c8f33ab4725626008600201548260030154604051610e7e9291906136ed565b60405180910390a15050565b6000610e966006611ebd565b9050610ea23382611ecb565b6040518060c0016040528083815260200160078481548110610eed577f4e487b7100000000000000000000000000000000000000000000000000000000600052603260045260246000fd5b90600052602060002090600602016001018054610f09906139c4565b80601f0160208091040260200160405190810160405280929190818152602001828054610f35906139c4565b8015610f825780601f10610f5757610100808354040283529160200191610f82565b820191906000526020600020905b815481529060010190602001808311610f6557829003601f168201915b5050505050815260200160078481548110610fc6577f4e487b7100000000000000000000000000000000000000000000000000000000600052603260045260246000fd5b90600052602060002090600602016002018054610fe2906139c4565b80601f016020809104026020016040519081016040528092919081815260200182805461100e906139c4565b801561105b5780601f106110305761010080835404028352916020019161105b565b820191906000526020600020905b81548152906001019060200180831161103e57829003601f168201915b505050505081526020016007848154811061109f577f4e487b7100000000000000000000000000000000000000000000000000000000600052603260045260246000fd5b9060005260206000209060060201600301548152602001600784815481106110f0577f4e487b7100000000000000000000000000000000000000000000000000000000600052603260045260246000fd5b906000526020600020906006020160040154815260200160078481548110611141577f4e487b7100000000000000000000000000000000000000000000000000000000600052603260045260246000fd5b906000526020600020906006020160050154815250600e600083815260200190815260200160002060008201518160000155602082015181600101908051906020019061118f92919061282d565b5060408201518160020190805190602001906111ac92919061282d565b50606082015181600301556080820151816004015560a0820151816005015590505080600d60003373ffffffffffffffffffffffffffffffffffffffff1673ffffffffffffffffffffffffffffffffffffffff1681526020019081526020016000208190555061121c60066119cb565b7fbf2263b644f384d6ebaa738f36031df02b6ccab5db157c41cba498d0e246776533828460405161124f93929190613348565b60405180910390a15050565b61126d611266611ab7565b8383611ee9565b5050565b61128261127c611ab7565b83611b78565b6112c1576040517f08c379a00000000000000000000000000000000000000000000000000000000081526004016112b8906135df565b60405180910390fd5b6112cd84848484612056565b50505050565b6112db6128b3565b60086040518060a00160405290816000820180546112f8906139c4565b80601f0160208091040260200160405190810160405280929190818152602001828054611324906139c4565b80156113715780601f1061134657610100808354040283529160200191611371565b820191906000526020600020905b81548152906001019060200180831161135457829003601f168201915b5050505050815260200160018201805461138a906139c4565b80601f01602080910402602001604051908101604052809291908181526020018280546113b6906139c4565b80156114035780601f106113d857610100808354040283529160200191611403565b820191906000526020600020905b8154815290600101906020018083116113e657829003601f168201915b505050505081526020016002820154815260200160038201548152602001600482015481525050905090565b6008806000018054611440906139c4565b80601f016020809104026020016040519081016040528092919081815260200182805461146c906139c4565b80156114b95780601f1061148e576101008083540402835291602001916114b9565b820191906000526020600020905b81548152906001019060200180831161149c57829003601f168201915b5050505050908060010180546114ce906139c4565b80601f01602080910402602001604051908101604052809291908181526020018280546114fa906139c4565b80156115475780601f1061151c57610100808354040283529160200191611547565b820191906000526020600020905b81548152906001019060200180831161152a57829003601f168201915b5050505050908060020154908060030154908060040154905085565b60606000600e60008481526020019081526020016000206040518060c00160405290816000820154815260200160018201805461159f906139c4565b80601f01602080910402602001604051908101604052809291908181526020018280546115cb906139c4565b80156116185780601f106115ed57610100808354040283529160200191611618565b820191906000526020600020905b8154815290600101906020018083116115fb57829003601f168201915b50505050508152602001600282018054611631906139c4565b80601f016020809104026020016040519081016040528092919081815260200182805461165d906139c4565b80156116aa5780601f1061167f576101008083540402835291602001916116aa565b820191906000526020600020905b81548152906001019060200180831161168d57829003601f168201915b505050505081526020016003820154815260200160048201548152602001600582015481525050905060006116e282606001516120b2565b905060006116f383608001516120b2565b905060006117048460a001516120b2565b905060006117408560200151866040015186868660405160200161172c959493929190613232565b60405160208183030381529060405261225f565b905060008160405160200161175591906132bf565b6040516020818303038152906040529050809650505050505050919050565b600d6020528060005260406000206000915090505481565b6000600560008473ffffffffffffffffffffffffffffffffffffffff1673ffffffffffffffffffffffffffffffffffffffff16815260200190815260200160002060008373ffffffffffffffffffffffffffffffffffffffff1673ffffffffffffffffffffffffffffffffffffffff16815260200190815260200160002060009054906101000a900460ff16905092915050565b60606007805480602002602001604051908101604052809291908181526020016000905b828210156119c257838290600052602060002090600602016040518060c001604052908160008201548152602001600182018054611881906139c4565b80601f01602080910402602001604051908101604052809291908181526020018280546118ad906139c4565b80156118fa5780601f106118cf576101008083540402835291602001916118fa565b820191906000526020600020905b8154815290600101906020018083116118dd57829003601f168201915b50505050508152602001600282018054611913906139c4565b80601f016020809104026020016040519081016040528092919081815260200182805461193f906139c4565b801561198c5780601f106119615761010080835404028352916020019161198c565b820191906000526020600020905b81548152906001019060200180831161196f57829003601f168201915b50505050508152602001600382015481526020016004820154815260200160058201548152505081526020019060010190611844565b50505050905090565b6001816000016000828254019250508190555050565b60007f01ffc9a7000000000000000000000000000000000000000000000000000000007bffffffffffffffffffffffffffffffffffffffffffffffffffffffff1916827bffffffffffffffffffffffffffffffffffffffffffffffffffffffff1916149050919050565b60008073ffffffffffffffffffffffffffffffffffffffff166002600084815260200190815260200160002060009054906101000a900473ffffffffffffffffffffffffffffffffffffffff1673ffffffffffffffffffffffffffffffffffffffff1614159050919050565b600033905090565b816004600083815260200190815260200160002060006101000a81548173ffffffffffffffffffffffffffffffffffffffff021916908373ffffffffffffffffffffffffffffffffffffffff160217905550808273ffffffffffffffffffffffffffffffffffffffff16611b3283610ae0565b73ffffffffffffffffffffffffffffffffffffffff167f8c5be1e5ebec7d5bd14f71427d1e84f3dd0314c0f7b2291e5b200ac8c7c3b92560405160405180910390a45050565b6000611b8382611a4b565b611bc2576040517f08c379a0000000000000000000000000000000000000000000000000000000008152600401611bb9906134ff565b60405180910390fd5b6000611bcd83610ae0565b90508073ffffffffffffffffffffffffffffffffffffffff168473ffffffffffffffffffffffffffffffffffffffff161480611c3c57508373ffffffffffffffffffffffffffffffffffffffff16611c248461059f565b73ffffffffffffffffffffffffffffffffffffffff16145b80611c4d5750611c4c818561178c565b5b91505092915050565b8273ffffffffffffffffffffffffffffffffffffffff16611c7682610ae0565b73ffffffffffffffffffffffffffffffffffffffff1614611ccc576040517f08c379a0000000000000000000000000000000000000000000000000000000008152600401611cc39061347f565b60405180910390fd5b600073ffffffffffffffffffffffffffffffffffffffff168273ffffffffffffffffffffffffffffffffffffffff161415611d3c576040517f08c379a0000000000000000000000000000000000000000000000000000000008152600401611d33906134bf565b60405180910390fd5b611d478383836123fe565b611d52600082611abf565b6001600360008573ffffffffffffffffffffffffffffffffffffffff1673ffffffffffffffffffffffffffffffffffffffff1681526020019081526020016000206000828254611da291906138da565b925050819055506001600360008473ffffffffffffffffffffffffffffffffffffffff1673ffffffffffffffffffffffffffffffffffffffff1681526020019081526020016000206000828254611df991906137f9565b92505081905550816002600083815260200190815260200160002060006101000a81548173ffffffffffffffffffffffffffffffffffffffff021916908373ffffffffffffffffffffffffffffffffffffffff160217905550808273ffffffffffffffffffffffffffffffffffffffff168473ffffffffffffffffffffffffffffffffffffffff167fddf252ad1be2c89b69c2b068fc378daa952ba7f163c4a11628f55a4df523b3ef60405160405180910390a4611eb8838383612403565b505050565b600081600001549050919050565b611ee5828260405180602001604052806000815250612408565b5050565b8173ffffffffffffffffffffffffffffffffffffffff168373ffffffffffffffffffffffffffffffffffffffff161415611f58576040517f08c379a0000000000000000000000000000000000000000000000000000000008152600401611f4f906134df565b60405180910390fd5b80600560008573ffffffffffffffffffffffffffffffffffffffff1673ffffffffffffffffffffffffffffffffffffffff16815260200190815260200160002060008473ffffffffffffffffffffffffffffffffffffffff1673ffffffffffffffffffffffffffffffffffffffff16815260200190815260200160002060006101000a81548160ff0219169083151502179055508173ffffffffffffffffffffffffffffffffffffffff168373ffffffffffffffffffffffffffffffffffffffff167f17307eab39ab6107e8899845ad3d59bd9653f200f220920489ca2b5937696c318360405161204991906133a1565b60405180910390a3505050565b612061848484611c56565b61206d84848484612463565b6120ac576040517f08c379a00000000000000000000000000000000000000000000000000000000081526004016120a39061345f565b60405180910390fd5b50505050565b606060008214156120fa576040518060400160405280600181526020017f3000000000000000000000000000000000000000000000000000000000000000815250905061225a565b600082905060005b6000821461212c57808061211590613a27565b915050600a82612125919061384f565b9150612102565b60008167ffffffffffffffff81111561216e577f4e487b7100000000000000000000000000000000000000000000000000000000600052604160045260246000fd5b6040519080825280601f01601f1916602001820160405280156121a05781602001600182028036833780820191505090505b5090505b60008514612253576001826121b991906138da565b9150600a856121c89190613a70565b60306121d491906137f9565b60f81b818381518110612210577f4e487b7100000000000000000000000000000000000000000000000000000000600052603260045260246000fd5b60200101907effffffffffffffffffffffffffffffffffffffffffffffffffffffffffffff1916908160001a905350600a8561224c919061384f565b94506121a4565b8093505050505b919050565b6060600082511415612282576040518060200160405280600081525090506123f9565b600060405180606001604052806040815260200161413f60409139905060006003600285516122b191906137f9565b6122bb919061384f565b60046122c79190613880565b905060006020826122d891906137f9565b67ffffffffffffffff811115612317577f4e487b7100000000000000000000000000000000000000000000000000000000600052604160045260246000fd5b6040519080825280601f01601f1916602001820160405280156123495781602001600182028036833780820191505090505b509050818152600183018586518101602084015b818310156123b8576003830192508251603f8160121c168501518253600182019150603f81600c1c168501518253600182019150603f8160061c168501518253600182019150603f811685015182536001820191505061235d565b6003895106600181146123d257600281146123e2576123ed565b613d3d60f01b60028303526123ed565b603d60f81b60018303525b50505050508093505050505b919050565b505050565b505050565b61241283836125fa565b61241f6000848484612463565b61245e576040517f08c379a00000000000000000000000000000000000000000000000000000000081526004016124559061345f565b60405180910390fd5b505050565b60006124848473ffffffffffffffffffffffffffffffffffffffff166127d4565b156125ed578373ffffffffffffffffffffffffffffffffffffffff1663150b7a026124ad611ab7565b8786866040518563ffffffff1660e01b81526004016124cf94939291906132fc565b602060405180830381600087803b1580156124e957600080fd5b505af192505050801561251a57506040513d601f19601f820116820180604052508101906125179190612ba0565b60015b61259d573d806000811461254a576040519150601f19603f3d011682016040523d82523d6000602084013e61254f565b606091505b50600081511415612595576040517f08c379a000000000000000000000000000000000000000000000000000000000815260040161258c9061345f565b60405180910390fd5b805181602001fd5b63150b7a0260e01b7bffffffffffffffffffffffffffffffffffffffffffffffffffffffff1916817bffffffffffffffffffffffffffffffffffffffffffffffffffffffff1916149150506125f2565b600190505b949350505050565b600073ffffffffffffffffffffffffffffffffffffffff168273ffffffffffffffffffffffffffffffffffffffff16141561266a576040517f08c379a00000000000000000000000000000000000000000000000000000000081526004016126619061357f565b60405180910390fd5b61267381611a4b565b156126b3576040517f08c379a00000000000000000000000000000000000000000000000000000000081526004016126aa9061349f565b60405180910390fd5b6126bf600083836123fe565b6001600360008473ffffffffffffffffffffffffffffffffffffffff1673ffffffffffffffffffffffffffffffffffffffff168152602001908152602001600020600082825461270f91906137f9565b92505081905550816002600083815260200190815260200160002060006101000a81548173ffffffffffffffffffffffffffffffffffffffff021916908373ffffffffffffffffffffffffffffffffffffffff160217905550808273ffffffffffffffffffffffffffffffffffffffff16600073ffffffffffffffffffffffffffffffffffffffff167fddf252ad1be2c89b69c2b068fc378daa952ba7f163c4a11628f55a4df523b3ef60405160405180910390a46127d060008383612403565b5050565b6000808273ffffffffffffffffffffffffffffffffffffffff163b119050919050565b6040518060c001604052806000815260200160608152602001606081526020016000815260200160008152602001600081525090565b828054612839906139c4565b90600052602060002090601f01602090048101928261285b57600085556128a2565b82601f1061287457805160ff19168380011785556128a2565b828001600101855582156128a2579182015b828111156128a1578251825591602001919060010190612886565b5b5090506128af91906128e2565b5090565b6040518060a0016040528060608152602001606081526020016000815260200160008152602001600081525090565b5b808211156128fb5760008160009055506001016128e3565b5090565b600061291261290d8461373b565b613716565b90508281526020810184848401111561292a57600080fd5b612935848285613982565b509392505050565b60008135905061294c816140e2565b92915050565b600081359050612961816140f9565b92915050565b60008135905061297681614110565b92915050565b60008151905061298b81614110565b92915050565b600082601f8301126129a257600080fd5b81356129b28482602086016128ff565b91505092915050565b6000813590506129ca81614127565b92915050565b6000602082840312156129e257600080fd5b60006129f08482850161293d565b91505092915050565b60008060408385031215612a0c57600080fd5b6000612a1a8582860161293d565b9250506020612a2b8582860161293d565b9150509250929050565b600080600060608486031215612a4a57600080fd5b6000612a588682870161293d565b9350506020612a698682870161293d565b9250506040612a7a868287016129bb565b9150509250925092565b60008060008060808587031215612a9a57600080fd5b6000612aa88782880161293d565b9450506020612ab98782880161293d565b9350506040612aca878288016129bb565b925050606085013567ffffffffffffffff811115612ae757600080fd5b612af387828801612991565b91505092959194509250565b60008060408385031215612b1257600080fd5b6000612b208582860161293d565b9250506020612b3185828601612952565b9150509250929050565b60008060408385031215612b4e57600080fd5b6000612b5c8582860161293d565b9250506020612b6d858286016129bb565b9150509250929050565b600060208284031215612b8957600080fd5b6000612b9784828501612967565b91505092915050565b600060208284031215612bb257600080fd5b6000612bc08482850161297c565b91505092915050565b600060208284031215612bdb57600080fd5b6000612be9848285016129bb565b91505092915050565b6000612bfe83836130f4565b905092915050565b612c0f8161390e565b82525050565b6000612c208261377c565b612c2a81856137aa565b935083602082028501612c3c8561376c565b8060005b85811015612c785784840389528151612c598582612bf2565b9450612c648361379d565b925060208a01995050600181019050612c40565b50829750879550505050505092915050565b612c9381613920565b82525050565b6000612ca482613787565b612cae81856137bb565b9350612cbe818560208601613991565b612cc781613b5d565b840191505092915050565b6000612cdd82613792565b612ce781856137cc565b9350612cf7818560208601613991565b612d0081613b5d565b840191505092915050565b6000612d1682613792565b612d2081856137dd565b9350612d30818560208601613991565b612d3981613b5d565b840191505092915050565b6000612d4f82613792565b612d5981856137ee565b9350612d69818560208601613991565b80840191505092915050565b6000612d82601f836137dd565b9150612d8d82613b6e565b602082019050919050565b6000612da56032836137dd565b9150612db082613b97565b604082019050919050565b6000612dc86025836137dd565b9150612dd382613be6565b604082019050919050565b6000612deb601c836137dd565b9150612df682613c35565b602082019050919050565b6000612e0e600e836137ee565b9150612e1982613c5e565b600e82019050919050565b6000612e316024836137dd565b9150612e3c82613c87565b604082019050919050565b6000612e546019836137dd565b9150612e5f82613cd6565b602082019050919050565b6000612e77602c836137dd565b9150612e8282613cff565b604082019050919050565b6000612e9a6038836137dd565b9150612ea582613d4e565b604082019050919050565b6000612ebd602a836137dd565b9150612ec882613d9d565b604082019050919050565b6000612ee06029836137dd565b9150612eeb82613dec565b604082019050919050565b6000612f036004836137ee565b9150612f0e82613e3b565b600482019050919050565b6000612f266020836137dd565b9150612f3182613e64565b602082019050919050565b6000612f49602c836137dd565b9150612f5482613e8d565b604082019050919050565b6000612f6c602c836137ee565b9150612f7782613edc565b602c82019050919050565b6000612f8f600a836137ee565b9150612f9a82613f2b565b600a82019050919050565b6000612fb26021836137dd565b9150612fbd82613f54565b604082019050919050565b6000612fd5601d836137ee565b9150612fe082613fa3565b601d82019050919050565b6000612ff86031836137ee565b915061300382613fcc565b603182019050919050565b600061301b6031836137dd565b91506130268261401b565b604082019050919050565b600061303e603d836137ee565b91506130498261406a565b603d82019050919050565b60006130616019836137dd565b915061306c826140b9565b602082019050919050565b600060a08301600083015184820360008601526130948282612cd2565b915050602083015184820360208601526130ae8282612cd2565b91505060408301516130c36040860182613214565b5060608301516130d66060860182613214565b5060808301516130e96080860182613214565b508091505092915050565b600060c08301600083015161310c6000860182613214565b50602083015184820360208601526131248282612cd2565b9150506040830151848203604086015261313e8282612cd2565b91505060608301516131536060860182613214565b5060808301516131666080860182613214565b5060a083015161317960a0860182613214565b508091505092915050565b600060c08301600083015161319c6000860182613214565b50602083015184820360208601526131b48282612cd2565b915050604083015184820360408601526131ce8282612cd2565b91505060608301516131e36060860182613214565b5060808301516131f66080860182613214565b5060a083015161320960a0860182613214565b508091505092915050565b61321d81613978565b82525050565b61322c81613978565b82525050565b600061323d82612f82565b91506132498288612d44565b915061325482612feb565b91506132608287612d44565b915061326b82613031565b91506132778286612d44565b915061328282612e01565b915061328e8285612d44565b915061329982612f5f565b91506132a58284612d44565b91506132b082612ef6565b91508190509695505050505050565b60006132ca82612fc8565b91506132d68284612d44565b915081905092915050565b60006020820190506132f66000830184612c06565b92915050565b60006080820190506133116000830187612c06565b61331e6020830186612c06565b61332b6040830185613223565b818103606083015261333d8184612c99565b905095945050505050565b600060608201905061335d6000830186612c06565b61336a6020830185613223565b6133776040830184613223565b949350505050565b600060208201905081810360008301526133998184612c15565b905092915050565b60006020820190506133b66000830184612c8a565b92915050565b600060208201905081810360008301526133d68184612d0b565b905092915050565b600060a08201905081810360008301526133f88188612d0b565b9050818103602083015261340c8187612d0b565b905061341b6040830186613223565b6134286060830185613223565b6134356080830184613223565b9695505050505050565b6000602082019050818103600083015261345881612d75565b9050919050565b6000602082019050818103600083015261347881612d98565b9050919050565b6000602082019050818103600083015261349881612dbb565b9050919050565b600060208201905081810360008301526134b881612dde565b9050919050565b600060208201905081810360008301526134d881612e24565b9050919050565b600060208201905081810360008301526134f881612e47565b9050919050565b6000602082019050818103600083015261351881612e6a565b9050919050565b6000602082019050818103600083015261353881612e8d565b9050919050565b6000602082019050818103600083015261355881612eb0565b9050919050565b6000602082019050818103600083015261357881612ed3565b9050919050565b6000602082019050818103600083015261359881612f19565b9050919050565b600060208201905081810360008301526135b881612f3c565b9050919050565b600060208201905081810360008301526135d881612fa5565b9050919050565b600060208201905081810360008301526135f88161300e565b9050919050565b6000602082019050818103600083015261361881613054565b9050919050565b600060208201905081810360008301526136398184613077565b905092915050565b6000602082019050818103600083015261365b8184613184565b905092915050565b60006020820190506136786000830184613223565b92915050565b600060c0820190506136936000830189613223565b81810360208301526136a58188612d0b565b905081810360408301526136b98187612d0b565b90506136c86060830186613223565b6136d56080830185613223565b6136e260a0830184613223565b979650505050505050565b60006040820190506137026000830185613223565b61370f6020830184613223565b9392505050565b6000613720613731565b905061372c82826139f6565b919050565b6000604051905090565b600067ffffffffffffffff82111561375657613755613b2e565b5b61375f82613b5d565b9050602081019050919050565b6000819050602082019050919050565b600081519050919050565b600081519050919050565b600081519050919050565b6000602082019050919050565b600082825260208201905092915050565b600082825260208201905092915050565b600082825260208201905092915050565b600082825260208201905092915050565b600081905092915050565b600061380482613978565b915061380f83613978565b9250827fffffffffffffffffffffffffffffffffffffffffffffffffffffffffffffffff0382111561384457613843613aa1565b5b828201905092915050565b600061385a82613978565b915061386583613978565b92508261387557613874613ad0565b5b828204905092915050565b600061388b82613978565b915061389683613978565b9250817fffffffffffffffffffffffffffffffffffffffffffffffffffffffffffffffff04831182151516156138cf576138ce613aa1565b5b828202905092915050565b60006138e582613978565b91506138f083613978565b92508282101561390357613902613aa1565b5b828203905092915050565b600061391982613958565b9050919050565b60008115159050919050565b60007fffffffff0000000000000000000000000000000000000000000000000000000082169050919050565b600073ffffffffffffffffffffffffffffffffffffffff82169050919050565b6000819050919050565b82818337600083830152505050565b60005b838110156139af578082015181840152602081019050613994565b838111156139be576000848401525b50505050565b600060028204905060018216806139dc57607f821691505b602082108114156139f0576139ef613aff565b5b50919050565b6139ff82613b5d565b810181811067ffffffffffffffff82111715613a1e57613a1d613b2e565b5b80604052505050565b6000613a3282613978565b91507fffffffffffffffffffffffffffffffffffffffffffffffffffffffffffffffff821415613a6557613a64613aa1565b5b600182019050919050565b6000613a7b82613978565b9150613a8683613978565b925082613a9657613a95613ad0565b5b828206905092915050565b7f4e487b7100000000000000000000000000000000000000000000000000000000600052601160045260246000fd5b7f4e487b7100000000000000000000000000000000000000000000000000000000600052601260045260246000fd5b7f4e487b7100000000000000000000000000000000000000000000000000000000600052602260045260246000fd5b7f4e487b7100000000000000000000000000000000000000000000000000000000600052604160045260246000fd5b6000601f19601f8301169050919050565b7f6572726f723a20626f737320697320616c726561647920646566656174656400600082015250565b7f4552433732313a207472616e7366657220746f206e6f6e20455243373231526560008201527f63656976657220696d706c656d656e7465720000000000000000000000000000602082015250565b7f4552433732313a207472616e736665722066726f6d20696e636f72726563742060008201527f6f776e6572000000000000000000000000000000000000000000000000000000602082015250565b7f4552433732313a20746f6b656e20616c7265616479206d696e74656400000000600082015250565b7f2c20226d61785f76616c7565223a000000000000000000000000000000000000600082015250565b7f4552433732313a207472616e7366657220746f20746865207a65726f2061646460008201527f7265737300000000000000000000000000000000000000000000000000000000602082015250565b7f4552433732313a20617070726f766520746f2063616c6c657200000000000000600082015250565b7f4552433732313a206f70657261746f7220717565727920666f72206e6f6e657860008201527f697374656e7420746f6b656e0000000000000000000000000000000000000000602082015250565b7f4552433732313a20617070726f76652063616c6c6572206973206e6f74206f7760008201527f6e6572206e6f7220617070726f76656420666f7220616c6c0000000000000000602082015250565b7f4552433732313a2062616c616e636520717565727920666f7220746865207a6560008201527f726f206164647265737300000000000000000000000000000000000000000000602082015250565b7f4552433732313a206f776e657220717565727920666f72206e6f6e657869737460008201527f656e7420746f6b656e0000000000000000000000000000000000000000000000602082015250565b7f7d205d7d00000000000000000000000000000000000000000000000000000000600082015250565b7f4552433732313a206d696e7420746f20746865207a65726f2061646472657373600082015250565b7f4552433732313a20617070726f76656420717565727920666f72206e6f6e657860008201527f697374656e7420746f6b656e0000000000000000000000000000000000000000602082015250565b7f7d2c207b202274726169745f74797065223a202241747461636b20506f77657260008201527f222c202276616c7565223a200000000000000000000000000000000000000000602082015250565b7f7b226e616d65223a202200000000000000000000000000000000000000000000600082015250565b7f4552433732313a20617070726f76616c20746f2063757272656e74206f776e6560008201527f7200000000000000000000000000000000000000000000000000000000000000602082015250565b7f646174613a6170706c69636174696f6e2f6a736f6e3b6261736536342c000000600082015250565b7f222c20226465736372697074696f6e223a202246616e696d65204e465420706c60008201527f61796572222c2022696d616765223a2022000000000000000000000000000000602082015250565b7f4552433732313a207472616e736665722063616c6c6572206973206e6f74206f60008201527f776e6572206e6f7220617070726f766564000000000000000000000000000000602082015250565b7f222c202261747472696275746573223a205b207b202274726169745f7479706560008201527f223a20224865616c746820506f696e7473222c202276616c7565223a20000000602082015250565b7f6572726f723a20706c6179657220697320646566656174656400000000000000600082015250565b6140eb8161390e565b81146140f657600080fd5b50565b61410281613920565b811461410d57600080fd5b50565b6141198161392c565b811461412457600080fd5b50565b61413081613978565b811461413b57600080fd5b5056fe4142434445464748494a4b4c4d4e4f505152535455565758595a6162636465666768696a6b6c6d6e6f707172737475767778797a303132333435363738392b2fa2646970667358221220fe5a5ce9d5016c84b317645c3fa9201a5072d5d4762cb195179cce0080eeb42864736f6c63430008010033",
  "linkReferences": {},
  "deployedLinkReferences": {}
}