{
  "_format": "hh-sol-artifact-1",
  "contractName": "Fanime",
  "sourceName": "contracts/Fanime.sol",
  "abi": [
    {
      "inputs": [
        {
          "internalType": "string[]",
          "name": "_characterNames",
          "type": "string[]"
        },
        {
          "internalType": "string[]",
          "name": "_characterImageURIs",
          "type": "string[]"
        },
        {
          "internalType": "uint256[]",
          "name": "_characterHPs",
          "type": "uint256[]"
        },
        {
          "internalType": "uint256[]",
          "name": "_characterAPs",
          "type": "uint256[]"
        },
        {
          "internalType": "string",
          "name": "_bossName",
          "type": "string"
        },
        {
          "internalType": "string",
          "name": "_bossImageURI",
          "type": "string"
        },
        {
          "internalType": "uint256",
          "name": "_bossHP",
          "type": "uint256"
        },
        {
          "internalType": "uint256",
          "name": "_bossAP",
          "type": "uint256"
        }
      ],
      "stateMutability": "nonpayable",
      "type": "constructor"
    },
    {
      "anonymous": false,
      "inputs": [
        {
          "indexed": true,
          "internalType": "address",
          "name": "owner",
          "type": "address"
        },
        {
          "indexed": true,
          "internalType": "address",
          "name": "approved",
          "type": "address"
        },
        {
          "indexed": true,
          "internalType": "uint256",
          "name": "tokenId",
          "type": "uint256"
        }
      ],
      "name": "Approval",
      "type": "event"
    },
    {
      "anonymous": false,
      "inputs": [
        {
          "indexed": true,
          "internalType": "address",
          "name": "owner",
          "type": "address"
        },
        {
          "indexed": true,
          "internalType": "address",
          "name": "operator",
          "type": "address"
        },
        {
          "indexed": false,
          "internalType": "bool",
          "name": "approved",
          "type": "bool"
        }
      ],
      "name": "ApprovalForAll",
      "type": "event"
    },
    {
      "anonymous": false,
      "inputs": [
        {
          "indexed": false,
          "internalType": "address",
          "name": "sender",
          "type": "address"
        },
        {
          "indexed": false,
          "internalType": "uint256",
          "name": "characterHP",
          "type": "uint256"
        },
        {
          "indexed": false,
          "internalType": "uint256",
          "name": "bossHP",
          "type": "uint256"
        }
      ],
      "name": "NewAttack",
      "type": "event"
    },
    {
      "anonymous": false,
      "inputs": [
        {
          "indexed": false,
          "internalType": "address",
          "name": "sender",
          "type": "address"
        },
        {
          "indexed": false,
          "internalType": "uint256",
          "name": "tokenId",
          "type": "uint256"
        },
        {
          "indexed": false,
          "internalType": "uint256",
          "name": "characterId",
          "type": "uint256"
        }
      ],
      "name": "NewMint",
      "type": "event"
    },
    {
      "anonymous": false,
      "inputs": [
        {
          "indexed": true,
          "internalType": "address",
          "name": "from",
          "type": "address"
        },
        {
          "indexed": true,
          "internalType": "address",
          "name": "to",
          "type": "address"
        },
        {
          "indexed": true,
          "internalType": "uint256",
          "name": "tokenId",
          "type": "uint256"
        }
      ],
      "name": "Transfer",
      "type": "event"
    },
    {
      "inputs": [
        {
          "internalType": "address",
          "name": "to",
          "type": "address"
        },
        {
          "internalType": "uint256",
          "name": "tokenId",
          "type": "uint256"
        }
      ],
      "name": "approve",
      "outputs": [],
      "stateMutability": "nonpayable",
      "type": "function"
    },
    {
      "inputs": [],
      "name": "attack",
      "outputs": [],
      "stateMutability": "nonpayable",
      "type": "function"
    },
    {
      "inputs": [
        {
          "internalType": "address",
          "name": "owner",
          "type": "address"
        }
      ],
      "name": "balanceOf",
      "outputs": [
        {
          "internalType": "uint256",
          "name": "",
          "type": "uint256"
        }
      ],
      "stateMutability": "view",
      "type": "function"
    },
    {
      "inputs": [
        {
          "internalType": "uint256",
          "name": "tokenId",
          "type": "uint256"
        }
      ],
      "name": "getApproved",
      "outputs": [
        {
          "internalType": "address",
          "name": "",
          "type": "address"
        }
      ],
      "stateMutability": "view",
      "type": "function"
    },
    {
      "inputs": [],
      "name": "getBoss",
      "outputs": [
        {
          "components": [
            {
              "internalType": "string",
              "name": "name",
              "type": "string"
            },
            {
              "internalType": "string",
              "name": "imageURI",
              "type": "string"
            },
            {
              "internalType": "uint256",
              "name": "hp",
              "type": "uint256"
            },
            {
              "internalType": "uint256",
              "name": "maxHP",
              "type": "uint256"
            },
            {
              "internalType": "uint256",
              "name": "ap",
              "type": "uint256"
            }
          ],
          "internalType": "struct Fanime.Boss",
          "name": "",
          "type": "tuple"
        }
      ],
      "stateMutability": "view",
      "type": "function"
    },
    {
      "inputs": [],
      "name": "getCharacters",
      "outputs": [
        {
          "components": [
            {
              "internalType": "uint256",
              "name": "characterId",
              "type": "uint256"
            },
            {
              "internalType": "string",
              "name": "name",
              "type": "string"
            },
            {
              "internalType": "string",
              "name": "imageURI",
              "type": "string"
            },
            {
              "internalType": "uint256",
              "name": "hp",
              "type": "uint256"
            },
            {
              "internalType": "uint256",
              "name": "maxHP",
              "type": "uint256"
            },
            {
              "internalType": "uint256",
              "name": "ap",
              "type": "uint256"
            }
          ],
          "internalType": "struct Fanime.Character[]",
          "name": "",
          "type": "tuple[]"
        }
      ],
      "stateMutability": "view",
      "type": "function"
    },
    {
      "inputs": [],
      "name": "getUserCharacter",
      "outputs": [
        {
          "components": [
            {
              "internalType": "uint256",
              "name": "characterId",
              "type": "uint256"
            },
            {
              "internalType": "string",
              "name": "name",
              "type": "string"
            },
            {
              "internalType": "string",
              "name": "imageURI",
              "type": "string"
            },
            {
              "internalType": "uint256",
              "name": "hp",
              "type": "uint256"
            },
            {
              "internalType": "uint256",
              "name": "maxHP",
              "type": "uint256"
            },
            {
              "internalType": "uint256",
              "name": "ap",
              "type": "uint256"
            }
          ],
          "internalType": "struct Fanime.Character",
          "name": "",
          "type": "tuple"
        }
      ],
      "stateMutability": "view",
      "type": "function"
    },
    {
      "inputs": [
        {
          "internalType": "address",
          "name": "owner",
          "type": "address"
        },
        {
          "internalType": "address",
          "name": "operator",
          "type": "address"
        }
      ],
      "name": "isApprovedForAll",
      "outputs": [
        {
          "internalType": "bool",
          "name": "",
          "type": "bool"
        }
      ],
      "stateMutability": "view",
      "type": "function"
    },
    {
      "inputs": [
        {
          "internalType": "uint256",
          "name": "_characterId",
          "type": "uint256"
        }
      ],
      "name": "mint",
      "outputs": [],
      "stateMutability": "nonpayable",
      "type": "function"
    },
    {
      "inputs": [],
      "name": "name",
      "outputs": [
        {
          "internalType": "string",
          "name": "",
          "type": "string"
        }
      ],
      "stateMutability": "view",
      "type": "function"
    },
    {
      "inputs": [
        {
          "internalType": "uint256",
          "name": "tokenId",
          "type": "uint256"
        }
      ],
      "name": "ownerOf",
      "outputs": [
        {
          "internalType": "address",
          "name": "",
          "type": "address"
        }
      ],
      "stateMutability": "view",
      "type": "function"
    },
    {
      "inputs": [
        {
          "internalType": "address",
          "name": "from",
          "type": "address"
        },
        {
          "internalType": "address",
          "name": "to",
          "type": "address"
        },
        {
          "internalType": "uint256",
          "name": "tokenId",
          "type": "uint256"
        }
      ],
      "name": "safeTransferFrom",
      "outputs": [],
      "stateMutability": "nonpayable",
      "type": "function"
    },
    {
      "inputs": [
        {
          "internalType": "address",
          "name": "from",
          "type": "address"
        },
        {
          "internalType": "address",
          "name": "to",
          "type": "address"
        },
        {
          "internalType": "uint256",
          "name": "tokenId",
          "type": "uint256"
        },
        {
          "internalType": "bytes",
          "name": "_data",
          "type": "bytes"
        }
      ],
      "name": "safeTransferFrom",
      "outputs": [],
      "stateMutability": "nonpayable",
      "type": "function"
    },
    {
      "inputs": [
        {
          "internalType": "address",
          "name": "operator",
          "type": "address"
        },
        {
          "internalType": "bool",
          "name": "approved",
          "type": "bool"
        }
      ],
      "name": "setApprovalForAll",
      "outputs": [],
      "stateMutability": "nonpayable",
      "type": "function"
    },
    {
      "inputs": [
        {
          "internalType": "bytes4",
          "name": "interfaceId",
          "type": "bytes4"
        }
      ],
      "name": "supportsInterface",
      "outputs": [
        {
          "internalType": "bool",
          "name": "",
          "type": "bool"
        }
      ],
      "stateMutability": "view",
      "type": "function"
    },
    {
      "inputs": [],
      "name": "symbol",
      "outputs": [
        {
          "internalType": "string",
          "name": "",
          "type": "string"
        }
      ],
      "stateMutability": "view",
      "type": "function"
    },
    {
      "inputs": [
        {
          "internalType": "uint256",
          "name": "_tokenId",
          "type": "uint256"
        }
      ],
      "name": "tokenURI",
      "outputs": [
        {
          "internalType": "string",
          "name": "",
          "type": "string"
        }
      ],
      "stateMutability": "view",
      "type": "function"
    },
    {
      "inputs": [
        {
          "internalType": "address",
          "name": "from",
          "type": "address"
        },
        {
          "internalType": "address",
          "name": "to",
          "type": "address"
        },
        {
          "internalType": "uint256",
          "name": "tokenId",
          "type": "uint256"
        }
      ],
      "name": "transferFrom",
      "outputs": [],
      "stateMutability": "nonpayable",
      "type": "function"
    }
  ],
  "bytecode": "0x60806040523480156200001157600080fd5b506040516200479538038062004795833981810160405281019062000037919062000631565b6040518060400160405280600681526020017f46616e696d6500000000000000000000000000000000000000000000000000008152506040518060400160405280600381526020017f464e4d00000000000000000000000000000000000000000000000000000000008152508160009080519060200190620000bb929190620003c4565b508060019080519060200190620000d4929190620003c4565b505050620000ee6006620003ae60201b6200168d1760201c565b60005b8851811015620003175760076040518060c001604052808381526020018b848151811062000148577f4e487b7100000000000000000000000000000000000000000000000000000000600052603260045260246000fd5b602002602001015181526020018a84815181106200018f577f4e487b7100000000000000000000000000000000000000000000000000000000600052603260045260246000fd5b60200260200101518152602001898481518110620001d6577f4e487b7100000000000000000000000000000000000000000000000000000000600052603260045260246000fd5b602002602001015181526020018984815181106200021d577f4e487b7100000000000000000000000000000000000000000000000000000000600052603260045260246000fd5b6020026020010151815260200188848151811062000264577f4e487b7100000000000000000000000000000000000000000000000000000000600052603260045260246000fd5b60200260200101518152509080600181540180825580915050600190039060005260206000209060060201600090919091909150600082015181600001556020820151816001019080519060200190620002c0929190620003c4565b506040820151816002019080519060200190620002df929190620003c4565b50606082015181600301556080820151816004015560a0820151816005015550506001816200030f919062000847565b9050620000f1565b506040518060a0016040528085815260200184815260200183815260200183815260200182815250600860008201518160000190805190602001906200035f929190620003c4565b5060208201518160010190805190602001906200037e929190620003c4565b50604082015181600201556060820151816003015560808201518160040155905050505050505050505062000a08565b6001816000016000828254019250508190555050565b828054620003d290620008e4565b90600052602060002090601f016020900481019282620003f6576000855562000442565b82601f106200041157805160ff191683800117855562000442565b8280016001018555821562000442579182015b828111156200044157825182559160200191906001019062000424565b5b50905062000451919062000455565b5090565b5b808211156200047057600081600090555060010162000456565b5090565b60006200048b6200048584620007b3565b6200078a565b9050808382526020820190508260005b85811015620004cf5781518501620004b48882620005ed565b8452602084019350602083019250506001810190506200049b565b5050509392505050565b6000620004f0620004ea84620007e2565b6200078a565b905080838252602082019050828560208602820111156200051057600080fd5b60005b858110156200054457816200052988826200061a565b84526020840193506020830192505060018101905062000513565b5050509392505050565b6000620005656200055f8462000811565b6200078a565b9050828152602081018484840111156200057e57600080fd5b6200058b848285620008ae565b509392505050565b600082601f830112620005a557600080fd5b8151620005b784826020860162000474565b91505092915050565b600082601f830112620005d257600080fd5b8151620005e4848260208601620004d9565b91505092915050565b600082601f830112620005ff57600080fd5b8151620006118482602086016200054e565b91505092915050565b6000815190506200062b81620009ee565b92915050565b600080600080600080600080610100898b0312156200064f57600080fd5b600089015167ffffffffffffffff8111156200066a57600080fd5b620006788b828c0162000593565b985050602089015167ffffffffffffffff8111156200069657600080fd5b620006a48b828c0162000593565b975050604089015167ffffffffffffffff811115620006c257600080fd5b620006d08b828c01620005c0565b965050606089015167ffffffffffffffff811115620006ee57600080fd5b620006fc8b828c01620005c0565b955050608089015167ffffffffffffffff8111156200071a57600080fd5b620007288b828c01620005ed565b94505060a089015167ffffffffffffffff8111156200074657600080fd5b620007548b828c01620005ed565b93505060c0620007678b828c016200061a565b92505060e06200077a8b828c016200061a565b9150509295985092959890939650565b600062000796620007a9565b9050620007a482826200091a565b919050565b6000604051905090565b600067ffffffffffffffff821115620007d157620007d0620009ae565b5b602082029050602081019050919050565b600067ffffffffffffffff8211156200080057620007ff620009ae565b5b602082029050602081019050919050565b600067ffffffffffffffff8211156200082f576200082e620009ae565b5b6200083a82620009dd565b9050602081019050919050565b60006200085482620008a4565b91506200086183620008a4565b9250827fffffffffffffffffffffffffffffffffffffffffffffffffffffffffffffffff0382111562000899576200089862000950565b5b828201905092915050565b6000819050919050565b60005b83811015620008ce578082015181840152602081019050620008b1565b83811115620008de576000848401525b50505050565b60006002820490506001821680620008fd57607f821691505b602082108114156200091457620009136200097f565b5b50919050565b6200092582620009dd565b810181811067ffffffffffffffff82111715620009475762000946620009ae565b5b80604052505050565b7f4e487b7100000000000000000000000000000000000000000000000000000000600052601160045260246000fd5b7f4e487b7100000000000000000000000000000000000000000000000000000000600052602260045260246000fd5b7f4e487b7100000000000000000000000000000000000000000000000000000000600052604160045260246000fd5b6000601f19601f8301169050919050565b620009f981620008a4565b811462000a0557600080fd5b50565b613d7d8062000a186000396000f3fe608060405234801561001057600080fd5b50600436106101165760003560e01c80639e5faafc116100a2578063c76d9e7d11610071578063c76d9e7d146102c9578063c87b56dd146102e7578063e35e06a014610317578063e985e9c514610335578063ee1ff4db1461036557610116565b80639e5faafc1461026b578063a0712d6814610275578063a22cb46514610291578063b88d4fde146102ad57610116565b806323b872dd116100e957806323b872dd146101b557806342842e0e146101d15780636352211e146101ed57806370a082311461021d57806395d89b411461024d57610116565b806301ffc9a71461011b57806306fdde031461014b578063081812fc14610169578063095ea7b314610199575b600080fd5b61013560048036038101906101309190612839565b610383565b6040516101429190613063565b60405180910390f35b610153610465565b604051610160919061307e565b60405180910390f35b610183600480360381019061017e919061288b565b6104f7565b6040516101909190612fa3565b60405180910390f35b6101b360048036038101906101ae91906127fd565b61057c565b005b6101cf60048036038101906101ca91906126f7565b610694565b005b6101eb60048036038101906101e691906126f7565b6106f4565b005b6102076004803603810190610202919061288b565b610714565b6040516102149190612fa3565b60405180910390f35b61023760048036038101906102329190612692565b6107c6565b60405161024491906132c4565b60405180910390f35b61025561087e565b604051610262919061307e565b60405180910390f35b610273610910565b005b61028f600480360381019061028a919061288b565b610ac0565b005b6102ab60048036038101906102a691906127c1565b610e91565b005b6102c760048036038101906102c29190612746565b610ea7565b005b6102d1610f09565b6040516102de9190613280565b60405180910390f35b61030160048036038101906102fc919061288b565b611065565b60405161030e919061307e565b60405180910390f35b61031f611276565b60405161032c91906132a2565b60405180910390f35b61034f600480360381019061034a91906126bb565b61144e565b60405161035c9190613063565b60405180910390f35b61036d6114e2565b60405161037a9190613041565b60405180910390f35b60007f80ac58cd000000000000000000000000000000000000000000000000000000007bffffffffffffffffffffffffffffffffffffffffffffffffffffffff1916827bffffffffffffffffffffffffffffffffffffffffffffffffffffffff1916148061044e57507f5b5e139f000000000000000000000000000000000000000000000000000000007bffffffffffffffffffffffffffffffffffffffffffffffffffffffff1916827bffffffffffffffffffffffffffffffffffffffffffffffffffffffff1916145b8061045e575061045d826116a3565b5b9050919050565b6060600080546104749061358d565b80601f01602080910402602001604051908101604052809291908181526020018280546104a09061358d565b80156104ed5780601f106104c2576101008083540402835291602001916104ed565b820191906000526020600020905b8154815290600101906020018083116104d057829003601f168201915b5050505050905090565b60006105028261170d565b610541576040517f08c379a0000000000000000000000000000000000000000000000000000000008152600401610538906131e0565b60405180910390fd5b6004600083815260200190815260200160002060009054906101000a900473ffffffffffffffffffffffffffffffffffffffff169050919050565b600061058782610714565b90508073ffffffffffffffffffffffffffffffffffffffff168373ffffffffffffffffffffffffffffffffffffffff1614156105f8576040517f08c379a00000000000000000000000000000000000000000000000000000000081526004016105ef90613200565b60405180910390fd5b8073ffffffffffffffffffffffffffffffffffffffff16610617611779565b73ffffffffffffffffffffffffffffffffffffffff161480610646575061064581610640611779565b61144e565b5b610685576040517f08c379a000000000000000000000000000000000000000000000000000000000815260040161067c90613160565b60405180910390fd5b61068f8383611781565b505050565b6106a561069f611779565b8261183a565b6106e4576040517f08c379a00000000000000000000000000000000000000000000000000000000081526004016106db90613220565b60405180910390fd5b6106ef838383611918565b505050565b61070f83838360405180602001604052806000815250610ea7565b505050565b6000806002600084815260200190815260200160002060009054906101000a900473ffffffffffffffffffffffffffffffffffffffff169050600073ffffffffffffffffffffffffffffffffffffffff168173ffffffffffffffffffffffffffffffffffffffff1614156107bd576040517f08c379a00000000000000000000000000000000000000000000000000000000081526004016107b4906131a0565b60405180910390fd5b80915050919050565b60008073ffffffffffffffffffffffffffffffffffffffff168273ffffffffffffffffffffffffffffffffffffffff161415610837576040517f08c379a000000000000000000000000000000000000000000000000000000000815260040161082e90613180565b60405180910390fd5b600360008373ffffffffffffffffffffffffffffffffffffffff1673ffffffffffffffffffffffffffffffffffffffff168152602001908152602001600020549050919050565b60606001805461088d9061358d565b80601f01602080910402602001604051908101604052809291908181526020018280546108b99061358d565b80156109065780601f106108db57610100808354040283529160200191610906565b820191906000526020600020905b8154815290600101906020018083116108e957829003601f168201915b5050505050905090565b6000600d60003373ffffffffffffffffffffffffffffffffffffffff1673ffffffffffffffffffffffffffffffffffffffff1681526020019081526020016000205490506000600e6000838152602001908152602001600020905060008160030154116109b2576040517f08c379a00000000000000000000000000000000000000000000000000000000081526004016109a990613260565b60405180910390fd5b6000600860020154116109fa576040517f08c379a00000000000000000000000000000000000000000000000000000000081526004016109f190613240565b60405180910390fd5b60086004015481600301541015610a1a5760008160030181905550610a38565b6008600401548160030154610a2f91906134a3565b81600301819055505b80600501546008600201541015610a59576000600860020181905550610a78565b8060050154600860020154610a6e91906134a3565b6008600201819055505b7fc2ecdd145322fe2fed9134de60a2729ca41294583a7c87e4a1320fe3db8855b1338260030154600860020154604051610ab49392919061300a565b60405180910390a15050565b6000610acc6006611b7f565b9050610ad83382611b8d565b80600d60003373ffffffffffffffffffffffffffffffffffffffff1673ffffffffffffffffffffffffffffffffffffffff168152602001908152602001600020819055506040518060c0016040528083815260200160078481548110610b67577f4e487b7100000000000000000000000000000000000000000000000000000000600052603260045260246000fd5b90600052602060002090600602016001018054610b839061358d565b80601f0160208091040260200160405190810160405280929190818152602001828054610baf9061358d565b8015610bfc5780601f10610bd157610100808354040283529160200191610bfc565b820191906000526020600020905b815481529060010190602001808311610bdf57829003601f168201915b5050505050815260200160078481548110610c40577f4e487b7100000000000000000000000000000000000000000000000000000000600052603260045260246000fd5b90600052602060002090600602016002018054610c5c9061358d565b80601f0160208091040260200160405190810160405280929190818152602001828054610c889061358d565b8015610cd55780601f10610caa57610100808354040283529160200191610cd5565b820191906000526020600020905b815481529060010190602001808311610cb857829003601f168201915b5050505050815260200160078481548110610d19577f4e487b7100000000000000000000000000000000000000000000000000000000600052603260045260246000fd5b906000526020600020906006020160030154815260200160078481548110610d6a577f4e487b7100000000000000000000000000000000000000000000000000000000600052603260045260246000fd5b906000526020600020906006020160040154815260200160078481548110610dbb577f4e487b7100000000000000000000000000000000000000000000000000000000600052603260045260246000fd5b906000526020600020906006020160050154815250600e6000838152602001908152602001600020600082015181600001556020820151816001019080519060200190610e099291906124b9565b506040820151816002019080519060200190610e269291906124b9565b50606082015181600301556080820151816004015560a08201518160050155905050610e52600661168d565b7fbf2263b644f384d6ebaa738f36031df02b6ccab5db157c41cba498d0e2467765338284604051610e859392919061300a565b60405180910390a15050565b610ea3610e9c611779565b8383611bab565b5050565b610eb8610eb2611779565b8361183a565b610ef7576040517f08c379a0000000000000000000000000000000000000000000000000000000008152600401610eee90613220565b60405180910390fd5b610f0384848484611d18565b50505050565b610f1161253f565b60086040518060a0016040529081600082018054610f2e9061358d565b80601f0160208091040260200160405190810160405280929190818152602001828054610f5a9061358d565b8015610fa75780601f10610f7c57610100808354040283529160200191610fa7565b820191906000526020600020905b815481529060010190602001808311610f8a57829003601f168201915b50505050508152602001600182018054610fc09061358d565b80601f0160208091040260200160405190810160405280929190818152602001828054610fec9061358d565b80156110395780601f1061100e57610100808354040283529160200191611039565b820191906000526020600020905b81548152906001019060200180831161101c57829003601f168201915b505050505081526020016002820154815260200160038201548152602001600482015481525050905090565b60606000600e60008481526020019081526020016000206040518060c0016040529081600082015481526020016001820180546110a19061358d565b80601f01602080910402602001604051908101604052809291908181526020018280546110cd9061358d565b801561111a5780601f106110ef5761010080835404028352916020019161111a565b820191906000526020600020905b8154815290600101906020018083116110fd57829003601f168201915b505050505081526020016002820180546111339061358d565b80601f016020809104026020016040519081016040528092919081815260200182805461115f9061358d565b80156111ac5780601f10611181576101008083540402835291602001916111ac565b820191906000526020600020905b81548152906001019060200180831161118f57829003601f168201915b505050505081526020016003820154815260200160048201548152602001600582015481525050905060006111e48260600151611d74565b905060006111f58360800151611d74565b905060006112068460a00151611d74565b905060006112428560200151866040015186868660405160200161122e959493929190612ef4565b604051602081830303815290604052611f21565b90506000816040516020016112579190612f81565b6040516020818303038152906040529050809650505050505050919050565b61127e61256e565b6000600d60003373ffffffffffffffffffffffffffffffffffffffff1673ffffffffffffffffffffffffffffffffffffffff168152602001908152602001600020549050600081111561143d57600e60008281526020019081526020016000206040518060c0016040529081600082015481526020016001820180546113039061358d565b80601f016020809104026020016040519081016040528092919081815260200182805461132f9061358d565b801561137c5780601f106113515761010080835404028352916020019161137c565b820191906000526020600020905b81548152906001019060200180831161135f57829003601f168201915b505050505081526020016002820180546113959061358d565b80601f01602080910402602001604051908101604052809291908181526020018280546113c19061358d565b801561140e5780601f106113e35761010080835404028352916020019161140e565b820191906000526020600020905b8154815290600101906020018083116113f157829003601f168201915b50505050508152602001600382015481526020016004820154815260200160058201548152505091505061144b565b61144561256e565b80925050505b90565b6000600560008473ffffffffffffffffffffffffffffffffffffffff1673ffffffffffffffffffffffffffffffffffffffff16815260200190815260200160002060008373ffffffffffffffffffffffffffffffffffffffff1673ffffffffffffffffffffffffffffffffffffffff16815260200190815260200160002060009054906101000a900460ff16905092915050565b60606007805480602002602001604051908101604052809291908181526020016000905b8282101561168457838290600052602060002090600602016040518060c0016040529081600082015481526020016001820180546115439061358d565b80601f016020809104026020016040519081016040528092919081815260200182805461156f9061358d565b80156115bc5780601f10611591576101008083540402835291602001916115bc565b820191906000526020600020905b81548152906001019060200180831161159f57829003601f168201915b505050505081526020016002820180546115d59061358d565b80601f01602080910402602001604051908101604052809291908181526020018280546116019061358d565b801561164e5780601f106116235761010080835404028352916020019161164e565b820191906000526020600020905b81548152906001019060200180831161163157829003601f168201915b50505050508152602001600382015481526020016004820154815260200160058201548152505081526020019060010190611506565b50505050905090565b6001816000016000828254019250508190555050565b60007f01ffc9a7000000000000000000000000000000000000000000000000000000007bffffffffffffffffffffffffffffffffffffffffffffffffffffffff1916827bffffffffffffffffffffffffffffffffffffffffffffffffffffffff1916149050919050565b60008073ffffffffffffffffffffffffffffffffffffffff166002600084815260200190815260200160002060009054906101000a900473ffffffffffffffffffffffffffffffffffffffff1673ffffffffffffffffffffffffffffffffffffffff1614159050919050565b600033905090565b816004600083815260200190815260200160002060006101000a81548173ffffffffffffffffffffffffffffffffffffffff021916908373ffffffffffffffffffffffffffffffffffffffff160217905550808273ffffffffffffffffffffffffffffffffffffffff166117f483610714565b73ffffffffffffffffffffffffffffffffffffffff167f8c5be1e5ebec7d5bd14f71427d1e84f3dd0314c0f7b2291e5b200ac8c7c3b92560405160405180910390a45050565b60006118458261170d565b611884576040517f08c379a000000000000000000000000000000000000000000000000000000000815260040161187b90613140565b60405180910390fd5b600061188f83610714565b90508073ffffffffffffffffffffffffffffffffffffffff168473ffffffffffffffffffffffffffffffffffffffff1614806118fe57508373ffffffffffffffffffffffffffffffffffffffff166118e6846104f7565b73ffffffffffffffffffffffffffffffffffffffff16145b8061190f575061190e818561144e565b5b91505092915050565b8273ffffffffffffffffffffffffffffffffffffffff1661193882610714565b73ffffffffffffffffffffffffffffffffffffffff161461198e576040517f08c379a0000000000000000000000000000000000000000000000000000000008152600401611985906130c0565b60405180910390fd5b600073ffffffffffffffffffffffffffffffffffffffff168273ffffffffffffffffffffffffffffffffffffffff1614156119fe576040517f08c379a00000000000000000000000000000000000000000000000000000000081526004016119f590613100565b60405180910390fd5b611a098383836120c0565b611a14600082611781565b6001600360008573ffffffffffffffffffffffffffffffffffffffff1673ffffffffffffffffffffffffffffffffffffffff1681526020019081526020016000206000828254611a6491906134a3565b925050819055506001600360008473ffffffffffffffffffffffffffffffffffffffff1673ffffffffffffffffffffffffffffffffffffffff1681526020019081526020016000206000828254611abb91906133c2565b92505081905550816002600083815260200190815260200160002060006101000a81548173ffffffffffffffffffffffffffffffffffffffff021916908373ffffffffffffffffffffffffffffffffffffffff160217905550808273ffffffffffffffffffffffffffffffffffffffff168473ffffffffffffffffffffffffffffffffffffffff167fddf252ad1be2c89b69c2b068fc378daa952ba7f163c4a11628f55a4df523b3ef60405160405180910390a4611b7a8383836120c5565b505050565b600081600001549050919050565b611ba78282604051806020016040528060008152506120ca565b5050565b8173ffffffffffffffffffffffffffffffffffffffff168373ffffffffffffffffffffffffffffffffffffffff161415611c1a576040517f08c379a0000000000000000000000000000000000000000000000000000000008152600401611c1190613120565b60405180910390fd5b80600560008573ffffffffffffffffffffffffffffffffffffffff1673ffffffffffffffffffffffffffffffffffffffff16815260200190815260200160002060008473ffffffffffffffffffffffffffffffffffffffff1673ffffffffffffffffffffffffffffffffffffffff16815260200190815260200160002060006101000a81548160ff0219169083151502179055508173ffffffffffffffffffffffffffffffffffffffff168373ffffffffffffffffffffffffffffffffffffffff167f17307eab39ab6107e8899845ad3d59bd9653f200f220920489ca2b5937696c3183604051611d0b9190613063565b60405180910390a3505050565b611d23848484611918565b611d2f84848484612125565b611d6e576040517f08c379a0000000000000000000000000000000000000000000000000000000008152600401611d65906130a0565b60405180910390fd5b50505050565b60606000821415611dbc576040518060400160405280600181526020017f30000000000000000000000000000000000000000000000000000000000000008152509050611f1c565b600082905060005b60008214611dee578080611dd7906135f0565b915050600a82611de79190613418565b9150611dc4565b60008167ffffffffffffffff811115611e30577f4e487b7100000000000000000000000000000000000000000000000000000000600052604160045260246000fd5b6040519080825280601f01601f191660200182016040528015611e625781602001600182028036833780820191505090505b5090505b60008514611f1557600182611e7b91906134a3565b9150600a85611e8a9190613639565b6030611e9691906133c2565b60f81b818381518110611ed2577f4e487b7100000000000000000000000000000000000000000000000000000000600052603260045260246000fd5b60200101907effffffffffffffffffffffffffffffffffffffffffffffffffffffffffffff1916908160001a905350600a85611f0e9190613418565b9450611e66565b8093505050505b919050565b6060600082511415611f44576040518060200160405280600081525090506120bb565b6000604051806060016040528060408152602001613d086040913990506000600360028551611f7391906133c2565b611f7d9190613418565b6004611f899190613449565b90506000602082611f9a91906133c2565b67ffffffffffffffff811115611fd9577f4e487b7100000000000000000000000000000000000000000000000000000000600052604160045260246000fd5b6040519080825280601f01601f19166020018201604052801561200b5781602001600182028036833780820191505090505b509050818152600183018586518101602084015b8183101561207a576003830192508251603f8160121c168501518253600182019150603f81600c1c168501518253600182019150603f8160061c168501518253600182019150603f811685015182536001820191505061201f565b60038951066001811461209457600281146120a4576120af565b613d3d60f01b60028303526120af565b603d60f81b60018303525b50505050508093505050505b919050565b505050565b505050565b6120d483836122bc565b6120e16000848484612125565b612120576040517f08c379a0000000000000000000000000000000000000000000000000000000008152600401612117906130a0565b60405180910390fd5b505050565b60006121468473ffffffffffffffffffffffffffffffffffffffff16612496565b156122af578373ffffffffffffffffffffffffffffffffffffffff1663150b7a0261216f611779565b8786866040518563ffffffff1660e01b81526004016121919493929190612fbe565b602060405180830381600087803b1580156121ab57600080fd5b505af19250505080156121dc57506040513d601f19601f820116820180604052508101906121d99190612862565b60015b61225f573d806000811461220c576040519150601f19603f3d011682016040523d82523d6000602084013e612211565b606091505b50600081511415612257576040517f08c379a000000000000000000000000000000000000000000000000000000000815260040161224e906130a0565b60405180910390fd5b805181602001fd5b63150b7a0260e01b7bffffffffffffffffffffffffffffffffffffffffffffffffffffffff1916817bffffffffffffffffffffffffffffffffffffffffffffffffffffffff1916149150506122b4565b600190505b949350505050565b600073ffffffffffffffffffffffffffffffffffffffff168273ffffffffffffffffffffffffffffffffffffffff16141561232c576040517f08c379a0000000000000000000000000000000000000000000000000000000008152600401612323906131c0565b60405180910390fd5b6123358161170d565b15612375576040517f08c379a000000000000000000000000000000000000000000000000000000000815260040161236c906130e0565b60405180910390fd5b612381600083836120c0565b6001600360008473ffffffffffffffffffffffffffffffffffffffff1673ffffffffffffffffffffffffffffffffffffffff16815260200190815260200160002060008282546123d191906133c2565b92505081905550816002600083815260200190815260200160002060006101000a81548173ffffffffffffffffffffffffffffffffffffffff021916908373ffffffffffffffffffffffffffffffffffffffff160217905550808273ffffffffffffffffffffffffffffffffffffffff16600073ffffffffffffffffffffffffffffffffffffffff167fddf252ad1be2c89b69c2b068fc378daa952ba7f163c4a11628f55a4df523b3ef60405160405180910390a4612492600083836120c5565b5050565b6000808273ffffffffffffffffffffffffffffffffffffffff163b119050919050565b8280546124c59061358d565b90600052602060002090601f0160209004810192826124e7576000855561252e565b82601f1061250057805160ff191683800117855561252e565b8280016001018555821561252e579182015b8281111561252d578251825591602001919060010190612512565b5b50905061253b91906125a4565b5090565b6040518060a0016040528060608152602001606081526020016000815260200160008152602001600081525090565b6040518060c001604052806000815260200160608152602001606081526020016000815260200160008152602001600081525090565b5b808211156125bd5760008160009055506001016125a5565b5090565b60006125d46125cf84613304565b6132df565b9050828152602081018484840111156125ec57600080fd5b6125f784828561354b565b509392505050565b60008135905061260e81613cab565b92915050565b60008135905061262381613cc2565b92915050565b60008135905061263881613cd9565b92915050565b60008151905061264d81613cd9565b92915050565b600082601f83011261266457600080fd5b81356126748482602086016125c1565b91505092915050565b60008135905061268c81613cf0565b92915050565b6000602082840312156126a457600080fd5b60006126b2848285016125ff565b91505092915050565b600080604083850312156126ce57600080fd5b60006126dc858286016125ff565b92505060206126ed858286016125ff565b9150509250929050565b60008060006060848603121561270c57600080fd5b600061271a868287016125ff565b935050602061272b868287016125ff565b925050604061273c8682870161267d565b9150509250925092565b6000806000806080858703121561275c57600080fd5b600061276a878288016125ff565b945050602061277b878288016125ff565b935050604061278c8782880161267d565b925050606085013567ffffffffffffffff8111156127a957600080fd5b6127b587828801612653565b91505092959194509250565b600080604083850312156127d457600080fd5b60006127e2858286016125ff565b92505060206127f385828601612614565b9150509250929050565b6000806040838503121561281057600080fd5b600061281e858286016125ff565b925050602061282f8582860161267d565b9150509250929050565b60006020828403121561284b57600080fd5b600061285984828501612629565b91505092915050565b60006020828403121561287457600080fd5b60006128828482850161263e565b91505092915050565b60006020828403121561289d57600080fd5b60006128ab8482850161267d565b91505092915050565b60006128c08383612db6565b905092915050565b6128d1816134d7565b82525050565b60006128e282613345565b6128ec8185613373565b9350836020820285016128fe85613335565b8060005b8581101561293a578484038952815161291b85826128b4565b945061292683613366565b925060208a01995050600181019050612902565b50829750879550505050505092915050565b612955816134e9565b82525050565b600061296682613350565b6129708185613384565b935061298081856020860161355a565b61298981613726565b840191505092915050565b600061299f8261335b565b6129a98185613395565b93506129b981856020860161355a565b6129c281613726565b840191505092915050565b60006129d88261335b565b6129e281856133a6565b93506129f281856020860161355a565b6129fb81613726565b840191505092915050565b6000612a118261335b565b612a1b81856133b7565b9350612a2b81856020860161355a565b80840191505092915050565b6000612a446032836133a6565b9150612a4f82613737565b604082019050919050565b6000612a676025836133a6565b9150612a7282613786565b604082019050919050565b6000612a8a601c836133a6565b9150612a95826137d5565b602082019050919050565b6000612aad600e836133b7565b9150612ab8826137fe565b600e82019050919050565b6000612ad06024836133a6565b9150612adb82613827565b604082019050919050565b6000612af36019836133a6565b9150612afe82613876565b602082019050919050565b6000612b16602c836133a6565b9150612b218261389f565b604082019050919050565b6000612b396038836133a6565b9150612b44826138ee565b604082019050919050565b6000612b5c602a836133a6565b9150612b678261393d565b604082019050919050565b6000612b7f6029836133a6565b9150612b8a8261398c565b604082019050919050565b6000612ba26004836133b7565b9150612bad826139db565b600482019050919050565b6000612bc56020836133a6565b9150612bd082613a04565b602082019050919050565b6000612be8602c836133a6565b9150612bf382613a2d565b604082019050919050565b6000612c0b602c836133b7565b9150612c1682613a7c565b602c82019050919050565b6000612c2e600a836133b7565b9150612c3982613acb565b600a82019050919050565b6000612c516021836133a6565b9150612c5c82613af4565b604082019050919050565b6000612c74601d836133b7565b9150612c7f82613b43565b601d82019050919050565b6000612c976031836133b7565b9150612ca282613b6c565b603182019050919050565b6000612cba6031836133a6565b9150612cc582613bbb565b604082019050919050565b6000612cdd6017836133a6565b9150612ce882613c0a565b602082019050919050565b6000612d00603d836133b7565b9150612d0b82613c33565b603d82019050919050565b6000612d236019836133a6565b9150612d2e82613c82565b602082019050919050565b600060a0830160008301518482036000860152612d568282612994565b91505060208301518482036020860152612d708282612994565b9150506040830151612d856040860182612ed6565b506060830151612d986060860182612ed6565b506080830151612dab6080860182612ed6565b508091505092915050565b600060c083016000830151612dce6000860182612ed6565b5060208301518482036020860152612de68282612994565b91505060408301518482036040860152612e008282612994565b9150506060830151612e156060860182612ed6565b506080830151612e286080860182612ed6565b5060a0830151612e3b60a0860182612ed6565b508091505092915050565b600060c083016000830151612e5e6000860182612ed6565b5060208301518482036020860152612e768282612994565b91505060408301518482036040860152612e908282612994565b9150506060830151612ea56060860182612ed6565b506080830151612eb86080860182612ed6565b5060a0830151612ecb60a0860182612ed6565b508091505092915050565b612edf81613541565b82525050565b612eee81613541565b82525050565b6000612eff82612c21565b9150612f0b8288612a06565b9150612f1682612c8a565b9150612f228287612a06565b9150612f2d82612cf3565b9150612f398286612a06565b9150612f4482612aa0565b9150612f508285612a06565b9150612f5b82612bfe565b9150612f678284612a06565b9150612f7282612b95565b91508190509695505050505050565b6000612f8c82612c67565b9150612f988284612a06565b915081905092915050565b6000602082019050612fb860008301846128c8565b92915050565b6000608082019050612fd360008301876128c8565b612fe060208301866128c8565b612fed6040830185612ee5565b8181036060830152612fff818461295b565b905095945050505050565b600060608201905061301f60008301866128c8565b61302c6020830185612ee5565b6130396040830184612ee5565b949350505050565b6000602082019050818103600083015261305b81846128d7565b905092915050565b6000602082019050613078600083018461294c565b92915050565b6000602082019050818103600083015261309881846129cd565b905092915050565b600060208201905081810360008301526130b981612a37565b9050919050565b600060208201905081810360008301526130d981612a5a565b9050919050565b600060208201905081810360008301526130f981612a7d565b9050919050565b6000602082019050818103600083015261311981612ac3565b9050919050565b6000602082019050818103600083015261313981612ae6565b9050919050565b6000602082019050818103600083015261315981612b09565b9050919050565b6000602082019050818103600083015261317981612b2c565b9050919050565b6000602082019050818103600083015261319981612b4f565b9050919050565b600060208201905081810360008301526131b981612b72565b9050919050565b600060208201905081810360008301526131d981612bb8565b9050919050565b600060208201905081810360008301526131f981612bdb565b9050919050565b6000602082019050818103600083015261321981612c44565b9050919050565b6000602082019050818103600083015261323981612cad565b9050919050565b6000602082019050818103600083015261325981612cd0565b9050919050565b6000602082019050818103600083015261327981612d16565b9050919050565b6000602082019050818103600083015261329a8184612d39565b905092915050565b600060208201905081810360008301526132bc8184612e46565b905092915050565b60006020820190506132d96000830184612ee5565b92915050565b60006132e96132fa565b90506132f582826135bf565b919050565b6000604051905090565b600067ffffffffffffffff82111561331f5761331e6136f7565b5b61332882613726565b9050602081019050919050565b6000819050602082019050919050565b600081519050919050565b600081519050919050565b600081519050919050565b6000602082019050919050565b600082825260208201905092915050565b600082825260208201905092915050565b600082825260208201905092915050565b600082825260208201905092915050565b600081905092915050565b60006133cd82613541565b91506133d883613541565b9250827fffffffffffffffffffffffffffffffffffffffffffffffffffffffffffffffff0382111561340d5761340c61366a565b5b828201905092915050565b600061342382613541565b915061342e83613541565b92508261343e5761343d613699565b5b828204905092915050565b600061345482613541565b915061345f83613541565b9250817fffffffffffffffffffffffffffffffffffffffffffffffffffffffffffffffff04831182151516156134985761349761366a565b5b828202905092915050565b60006134ae82613541565b91506134b983613541565b9250828210156134cc576134cb61366a565b5b828203905092915050565b60006134e282613521565b9050919050565b60008115159050919050565b60007fffffffff0000000000000000000000000000000000000000000000000000000082169050919050565b600073ffffffffffffffffffffffffffffffffffffffff82169050919050565b6000819050919050565b82818337600083830152505050565b60005b8381101561357857808201518184015260208101905061355d565b83811115613587576000848401525b50505050565b600060028204905060018216806135a557607f821691505b602082108114156135b9576135b86136c8565b5b50919050565b6135c882613726565b810181811067ffffffffffffffff821117156135e7576135e66136f7565b5b80604052505050565b60006135fb82613541565b91507fffffffffffffffffffffffffffffffffffffffffffffffffffffffffffffffff82141561362e5761362d61366a565b5b600182019050919050565b600061364482613541565b915061364f83613541565b92508261365f5761365e613699565b5b828206905092915050565b7f4e487b7100000000000000000000000000000000000000000000000000000000600052601160045260246000fd5b7f4e487b7100000000000000000000000000000000000000000000000000000000600052601260045260246000fd5b7f4e487b7100000000000000000000000000000000000000000000000000000000600052602260045260246000fd5b7f4e487b7100000000000000000000000000000000000000000000000000000000600052604160045260246000fd5b6000601f19601f8301169050919050565b7f4552433732313a207472616e7366657220746f206e6f6e20455243373231526560008201527f63656976657220696d706c656d656e7465720000000000000000000000000000602082015250565b7f4552433732313a207472616e736665722066726f6d20696e636f72726563742060008201527f6f776e6572000000000000000000000000000000000000000000000000000000602082015250565b7f4552433732313a20746f6b656e20616c7265616479206d696e74656400000000600082015250565b7f2c20226d61785f76616c7565223a000000000000000000000000000000000000600082015250565b7f4552433732313a207472616e7366657220746f20746865207a65726f2061646460008201527f7265737300000000000000000000000000000000000000000000000000000000602082015250565b7f4552433732313a20617070726f766520746f2063616c6c657200000000000000600082015250565b7f4552433732313a206f70657261746f7220717565727920666f72206e6f6e657860008201527f697374656e7420746f6b656e0000000000000000000000000000000000000000602082015250565b7f4552433732313a20617070726f76652063616c6c6572206973206e6f74206f7760008201527f6e6572206e6f7220617070726f76656420666f7220616c6c0000000000000000602082015250565b7f4552433732313a2062616c616e636520717565727920666f7220746865207a6560008201527f726f206164647265737300000000000000000000000000000000000000000000602082015250565b7f4552433732313a206f776e657220717565727920666f72206e6f6e657869737460008201527f656e7420746f6b656e0000000000000000000000000000000000000000000000602082015250565b7f7d205d7d00000000000000000000000000000000000000000000000000000000600082015250565b7f4552433732313a206d696e7420746f20746865207a65726f2061646472657373600082015250565b7f4552433732313a20617070726f76656420717565727920666f72206e6f6e657860008201527f697374656e7420746f6b656e0000000000000000000000000000000000000000602082015250565b7f7d2c207b202274726169745f74797065223a202241747461636b20506f77657260008201527f222c202276616c7565223a200000000000000000000000000000000000000000602082015250565b7f7b226e616d65223a202200000000000000000000000000000000000000000000600082015250565b7f4552433732313a20617070726f76616c20746f2063757272656e74206f776e6560008201527f7200000000000000000000000000000000000000000000000000000000000000602082015250565b7f646174613a6170706c69636174696f6e2f6a736f6e3b6261736536342c000000600082015250565b7f222c20226465736372697074696f6e223a202246616e696d65204e465420706c60008201527f61796572222c2022696d616765223a2022000000000000000000000000000000602082015250565b7f4552433732313a207472616e736665722063616c6c6572206973206e6f74206f60008201527f776e6572206e6f7220617070726f766564000000000000000000000000000000602082015250565b7f6572726f723a20626f7373206973206465666561746564000000000000000000600082015250565b7f222c202261747472696275746573223a205b207b202274726169745f7479706560008201527f223a20224865616c746820506f696e7473222c202276616c7565223a20000000602082015250565b7f6572726f723a20706c6179657220697320646566656174656400000000000000600082015250565b613cb4816134d7565b8114613cbf57600080fd5b50565b613ccb816134e9565b8114613cd657600080fd5b50565b613ce2816134f5565b8114613ced57600080fd5b50565b613cf981613541565b8114613d0457600080fd5b5056fe4142434445464748494a4b4c4d4e4f505152535455565758595a6162636465666768696a6b6c6d6e6f707172737475767778797a303132333435363738392b2fa26469706673582212204addddcb79512d5a9c766a88d5a6d4fcc53bf5d1cbb4ffa0cc2911fe226d0ed264736f6c63430008010033",
  "linkReferences": {},
  "deployedLinkReferences": {}
}